:020000040800F2
:10000000182B002005010008031E0008A519000890
:10001000011E0008C1010008612500080000000061
:10002000000000000000000000000000071E0008A3
:10003000F501000800000000051E0008251F00084B
:100040001F0100081F0100081F0100081F01000810
:100050001F0100081F0100081F0100081F01000800
:100060001F0100081F0100081F0100081F010008F0
:100070001F0100081F010008C5010008D101000888
:10008000DD010008E90100081F0100081F01000848
:100090001F0100081F0100081F0100081F010008C0
:1000A0001F0100081F0100081F0100081F010008B0
:1000B0001F0100081F0100084D2000081F01000853
:1000C0001F0100081F0100081F0100081F01000890
:1000D0001F01000849250008552500081F010008D8
:1000E0001F0100081F0100081F010008DFF810D0E1
:1000F00000F054F80048004713290008AFF30080CF
:10010000182B00200648804706480047FEE7FEE718
:10011000FEE7FEE7FEE7FEE7FEE7FEE7FEE7FEE7B7
:10012000951F0008ED00000840EA01039B0703D07B
:1001300009E008C9121F08C0042AFAD203E011F826
:10014000013B00F8013B521EF9D27047D2B201E0E8
:1001500000F8012B491EFBD270470022F6E710B5CC
:1001600013460A4604461946FFF7F0FF204610BD25
:1001700030B50B46014600202022012409E021FA77
:1001800002F59D4205D303FA02F5491B04FA02F574
:100190002844151EA2F10102F1DC30BD064C074DCA
:1001A00006E0E06840F0010394E807009847103447
:1001B000AC42F6D3FFF79EFF8C2A0008AC2A000859
:1001C000FEE70000014800F087B80000A002002010
:1001D000014800F081B800005C020020014800F0F6
:1001E0007BB80000E4020020014800F075B8000070
:1001F00028030020704772B6FEE710B590F8211072
:100200000022022905D00421816380F820200120EA
:1002100010BD01680B6823F00E030B6001680B68CA
:1002200023F001030B6090F84030C46B012101FA08
:1002300003F3636080F8211080F82020104610BD81
:1002400010B590F821100024022903D00421816305
:1002500001243DE001680A6822F00E020A6001688C
:100260000A6822F001020A601A4A0168914201D12B
:10027000012121E0174A1432914201D110211BE0E3
:10028000144A2832914201D1891515E0114A3C32B5
:10029000914201D189140FE00E4A5032914202D1AD
:1002A0004FF4803108E00B4A6432914202D14FF49E
:1002B000801101E04FF08071064A083A5160012137
:1002C00080F82110002180F82010416B01B188478F
:1002D000204610BD080002402DE9F05FC16B0C689C
:1002E00001680B68D0F840C0042202FA0CF2494DB4
:1002F000DFF824A1494E4A4FDFF828B1DFF828E1A2
:1003000022422CD05A072AD50A68920603D40A68DA
:1003100022F004020A600168A94201D1042219E016
:10032000514501D1402215E0B14202D14FF4806223
:1003300010E0B94202D14FF480420BE0594502D19E
:100340004FF4802206E0714502D14FF4800201E0B3
:100350004FF080622F4908394A60C16A3BE04FF094
:10036000020808FA0CF818EA040F4FF000094FF0E1
:10037000010235D05FEA837832D50B689B0605D43D
:100380000B6823F00A030B6080F821200168A94262
:1003900001D1022219E0514501D1202215E0B142DC
:1003A00002D14FF4007210E0B94202D14FF4005272
:1003B0000BE0594502D14FF4003206E0714502D1FD
:1003C0004FF4001201E04FF00072124908394A6000
:1003D00080F82090816A00291AD0BDE8F05F0847B4
:1003E000082505FA0CF5254212D01B0710D50B681D
:1003F00023F00E030B6090F84010C36B02FA01F17A
:100400005960826380F8212080F82090016BE2E738
:10041000BDE8F09F080002401C000240300002408E
:1004200044000240580002406C00024030B528B33E
:1004300008C8134914221944B1FBF2F18900C163C1
:1004400010498163022141771A6843F6F0718A43AB
:10045000D0E900142143D0E902452C43214304692B
:1004600021434469214384692143114319600021D8
:100470004163012242770177084630BD012030BD3B
:10048000F8FFFDBF000002402DE9F84FDFF8B891FA
:100490000024A9F1040B23460F2709F1040AABF14C
:1004A000040EC9E00125A5402A40AA427DD1674E2D
:1004B000D1F804C0ACEB0608B44532D014DCBCF172
:1004C000030F3AD009DCBCF1000F2AD0BCF1010FB8
:1004D0001CD0BCF1020F31D11DE0BCF1110F17D0BF
:1004E000BCF1120F2AD119E0B8F5881F19D006DC2B
:1004F000B8F5803F15D0B8F5801F1FD111E0B8F5D1
:10050000001F0ED0B8F5041F18D10AE0CB6815E023
:10051000CB681B1D12E0CB6808330FE0CB680C33AF
:100520000CE08B682BB1012B4FF0080303D0456121
:1005300004E0042302E0056100E00023FF2A01D863
:10054000064601E000F104064FEA840501D9A5F151
:100550002005D6F8008007FA05FC28EA0C0803FA03
:1005600005F548EA0508C6F800804D68ED0062D53B
:10057000374DAE6946F00106AE61AD6924F0030661
:1005800005F001050095334D06EB050CDCF808502D
:10059000A607360F07FA06F825EA0805DFF8B8803F
:1005A000404503D14FF0000817E044E0DFF8AC808D
:1005B000404502D14FF001080FE0DFF8A48040452C
:1005C00002D14FF0020808E0DFF89880404502D1E0
:1005D0004FF0030801E04FF0040808FA06F848EA73
:1005E0000508CCF808804D68D9F80060ED024D464A
:1005F00001D5164300E096432E604D68DAF800609E
:10060000AD02554601D5164300E096432E604D6875
:10061000DBF80060AD035D4601D5164300E096436C
:100620002E604D68DEF80060ED03754601D5164377
:1006300000E096432E60641C0D682A46E5407FF476
:1006400031AFBDE8F88F0000080401400000111030
:10065000001002400000014000080140000C014071
:100660000010014000140140C26821EA02030A4060
:1006700043EA0241016170470AB101617047090410
:10068000FBE7000001488068704700000000002080
:1006900070B5040025D094F83D00002520B984F8F9
:1006A0003C50204600F0B8F8242084F83D00206833
:1006B000016821F0010101602068016841F40041F6
:1006C00001602068016821F40041016000F00AFA2D
:1006D0004D4A6168914201D84C4900E04C4988423A
:1006E00001D2012070BD4B492368B0FBF1F15E6877
:1006F00026F03F060E435E606368934206D94FF4CE
:10070000967359434FF47A73B1FBF3F12368491C94
:100710001E6A26F03F06314319626168914210D883
:100720004900401EB0FBF1F2521CC2F30B02042A36
:1007300001D2042022E0B0FBF1F0401CC0F30B001A
:100740001CE0A268F2B301EBC10303EB0116431EE8
:10075000B3FBF6F35B1C43F480431B0549D092B313
:1007600001EBC10202EB0111401EB0FBF1F0401C95
:10077000C0F30B0040F4804040F400402168CA6997
:100780004CF6FF739A431043C861D4E90710014344
:100790002068026822F0C00211430160D4E903011D
:1007A00001432068826848F2FF339A431143816015
:1007B000D4E9050108432168CA6822F0FF0210430A
:1007C000C86001E00EE016E02068016841F0010118
:1007D00001602564202084F83D00256384F83E50A4
:1007E000002070BD01EB4106431EB3FBF6F35B1C1A
:1007F000B3E70120C2E701EB4101401EB0FBF1F07D
:10080000401CC0F30B00B7E7A086010080841E00E7
:1008100000093D0040420F0010B586B00021009154
:1008200001910291039100681349884222D1134C2F
:10083000A06940F00800A061A069694600F00800C6
:1008400004904FF440700090122001900320039018
:100850000B48FFF719FE0B48416841F0E06141F099
:1008600002014160E06940F40010E061E06900F4D9
:100870000010049006B010BD00540040001002406B
:10088000000C0140000001400248816802781144D8
:100890008160704700000020074810B5016841F0F2
:1008A00010010160032000F075F80F2000F006F839
:1008B00000F024F8002010BD0020024070B50D4D5E
:1008C00004464FF47A712878B1FBF0F00A490968C0
:1008D000B1FBF0F000F0DDFA48B9102C07D200228D
:1008E0002146501E00F036F800206C6070BD0120DB
:1008F00070BD000000000020240000200C4808B556
:10090000816941F001018161816901F0010100917A
:10091000C16941F08051C161C06900F08050009010
:100920000448416821F0E06141F00071416008BD78
:100930000010024000000140002809DB00F01F0207
:10094000012191404009800000F1E020C0F8001131
:1009500070470000F0B40E4B1B680C46C3F3022333
:10096000C3F10705042D00D90425191D072901D25B
:10097000002300E0DB1E012606FA05F1491E214096
:1009800099409E40761E16403143F0BC01F0FABDFE
:100990000CED00E0064900F0070208684FF6FF037F
:1009A000184040EA0220034A1043086070470000E4
:1009B0000CED00E00000FA052DE9F0470F460500B8
:1009C00061D0434E306800F00700B84209D2306869
:1009D00020F0070038433060306800F00700B8426C
:1009E00051D128683B4C810712D5400703D5606878
:1009F00040F4E06060602878000703D5606840F448
:100A0000605060606068A96820F0F0000843606092
:100A10002878C00728D06868012810D021680228EB
:100A200010D0890700292EDA616821F00301014303
:100A30006160FFF727FE804641F288390DE02168AA
:100A40008903EFE78901EDE7FFF71CFEA0EB080142
:100A5000494502D90320BDE8F0876068696800F065
:100A60000C00B0EB810FEFD1306800F00700B84206
:100A70000BD9306820F0070038433060306800F050
:100A80000700B84201D00120E5E72878400705D5E6
:100A90006068E96820F4E060084360602878000737
:100AA00006D56068296920F4605040EAC1006060A2
:100AB00000F038F86168084AC1F30311515CC8407E
:100AC0000649086006480068FFF7F8FE0020C2E704
:100AD0000020024000100240742A00082400002078
:100AE000040000200448054900684968044AC1F32D
:100AF0000221515CC84070472400002000100240D1
:100B0000842A00080448054900684968044AC1F37A
:100B1000C221515CC84070472400002000100240F0
:100B2000842A00080E4A51680E4801F00C03042B79
:100B300011D0082B0FD10C48C1F38343C903C05C0B
:100B40000AD55168084AC1F34041921E515C054ADA
:100B50005043B0FBF1F07047044948437047000030
:100B60000010024000127A00442A000800093D00EB
:100B70002DE9F84F040070D02078C04DC00749D04F
:100B80006868C0F38100012807D06868C0F381005D
:100B9000022809D16868C00306D52868800339D5C2
:100BA00060680028E7D035E06068B0F5803F0BD082
:100BB00010B1B0F5A02F11D0286820F48030286043
:100BC000286820F4802002E0286840F48030286003
:100BD000606890B1FFF756FD06460AE0286840F4C9
:100BE00080202860F0E700BFFFF74CFD801B6428E1
:100BF00073D828688003F7D50CE0FFF743FD06465D
:100C000005E000BFFFF73EFD801B6428F0D8286890
:100C10008003F7D420789A4E80074FF001094FF0F7
:100C2000000839D5686810F00C0F07D06868C0F369
:100C30008100022809D16868C00306D428688007AB
:100C400014D52069012808D110E02069B0B1C6F898
:100C50000090FFF717FD074605E00AE1FFF712FDD8
:100C6000C01B0228C4D828688007F7D528686169A6
:100C700020F0F80040EAC10028600DE0C6F80080CE
:100C8000FFF700FD074604E0FFF7FCFCC01B02284D
:100C900023D828688007F7D4207800072CD5794816
:100CA000A169D9B1C0F80090FFF7ECFC074604E059
:100CB000FFF7E8FCC01B02280FD8686A8007F7D549
:100CC00071484FF4FA510068B0FBF1F0009000BF9A
:100CD0000098411E0091FAD20EE080E0C0F800803A
:100CE000FFF7D0FC074604E0FFF7CCFCC01B02284E
:100CF00075D8686A8007F7D42078400760D5E8691E
:100D00000027C00008D4E86940F08050E861E86935
:100D1000012700F0805000905C480168C90513D499
:100D20000168834641F480710160FFF7ABFC8246A5
:100D300006E000BFFFF7A6FCA0EB0A0064284ED82F
:100D4000DBF80000C005F5D5E06801280AD008B13D
:100D5000052813D0286A20F001002862286A20F0B4
:100D6000040002E0286A40F001002862E06841F2D5
:100D7000883B98B1FFF786FC82460BE0286A40F07A
:100D800004002862EEE700BFFFF77CFCA0EB0A013D
:100D900059455AD8286A8007F6D50CE0FFF772FC4F
:100DA000824605E0FFF76EFCA0EB0A0159454CD8DE
:100DB000286A8007F6D41FB1E86920F08050E86106
:100DC000E06988B36968C1F38101022944D002282F
:100DD000C6F8608004D0FFF755FC044638E034E0E4
:100DE000FFF750FC074604E0FFF74CFCC01B02284D
:100DF0002BD828688001F7D4206AB0F5803F05D150
:100E00006868A16820F4003008436860D4E90801EC
:100E10000843696821F4741108436860C6F860905B
:100E2000FFF730FC044606E025E000BFFFF72AFC90
:100E3000001B022809D828688001F7D51BE000BFF5
:100E4000FFF720FC001B022802D90320BDE8F88F21
:100E500028688001F4D40EE00128F7D06868226A7F
:100E600000F48031914204D1616A00F4701088422C
:100E700001D00120EAE70020E8E70000001002406E
:100E800000004242800442422400002000700040E2
:100E9000704710B5401EB0F1807F01D3012010BD16
:100EA0004FF0E02460610F21601701F06BFB002020
:100EB000A06107202061002010BD10B5FFF7E8FFFA
:100EC00010BD7047704710B590F83C20012A22D021
:100ED000012280F83C20CA688C6822F440722243C8
:100EE0004C6822F4806222430C6822F400622243A0
:100EF0000C6922F4805222434C6922F400522243AE
:100F0000C969002322F480420A4301684A6480F8D8
:100F10003C30002010BD022010BD000070B590F8DC
:100F20003C20012A26D0012480F83C40022280F88F
:100F30003D2003685A689D6822F070060A683243B3
:100F40005A600D4B02689A4208D0B2F1804F05D02A
:100F50000A4B9A4202D00A4B9A4204D1496825F0C2
:100F600080031943916080F83D40002180F83C10D7
:100F7000084670BD022070BD002C014000040040F6
:100F80000008004010B5040003D094F83D0010B1F3
:100F900007E0012010BD002084F83C00204600F04E
:100FA0001FF8022084F83D00211D206801F054F84C
:100FB000012084F8460084F83E0084F83F0084F85D
:100FC000400084F8410084F8420084F8430084F82B
:100FD000440084F8450084F83D00002010BD000066
:100FE00008B51C4A01681C48914207D1816941F447
:100FF00000618161806900F4006014E0B1F1804F0C
:101000000AD0164A914210D1C16941F00201C16172
:10101000C06900F0020006E0C16941F00101C16150
:10102000C06900F00100009008BD0D4A9142FBD15B
:10103000C16941F00401C161C069002200F00400EF
:1010400000900F211E20FFF785FCBDE808401E2000
:10105000FFF772BC002C0140001002400004004069
:101060000008004070B5044690F83C0000250128B7
:1010700017D0012684F83C60022084F83D002068E7
:10108000826822F0770222F47F428260086850284A
:1010900038D00DDC20284FD005DC90B3102811D1BA
:1010A0004AE0022070BD302846D040280AD13BE0FB
:1010B00060282FD070280DD0B0F5805F03D0B0F538
:1010C000005F12D0012584F83D60002084F83C00C8
:1010D000284670BDCB68D1E90121206800F0F8FFF7
:1010E0002068816841F0770109E0CB68D1E90121EE
:1010F000206800F0EDFF2068816841F48041816044
:10110000E1E719E0CA684968206801F095F85021C4
:10111000206806E0CA684968206801F09EF86021EE
:10112000206800F0DFFFCEE7CA684968206801F058
:1011300083F840212068F4E7226801461046F0E772
:1011400070472DE9F04104460068C66805694FF014
:101150000007A90713D5B10711D5F91E01610120B8
:101160002077206880698007204602D0FFF7E8FFDB
:1011700004E000F0EDF8204600F07FF927776807DB
:1011800016D5700714D521686FF00400086102209D
:1011900020772068806910F4407F204602D0FFF756
:1011A000CFFF04E000F0D4F8204600F066F927777E
:1011B000280715D5300713D521686FF0080008619E
:1011C000042020772068C0698007204602D0FFF7FE
:1011D000B7FF04E000F0BCF8204600F04EF9277796
:1011E000E80616D5F00614D521686FF010000861E6
:1011F000082020772068C06910F4407F204602D084
:10120000FFF79EFF04E000F0A3F8204600F035F958
:101210002777E80708D0F00706D021686FF00100B3
:101220000861204600F02AF9280608D5300606D5C0
:1012300021686FF0800008612046FFF742FE6806D3
:1012400008D5700606D521686FF040000861204679
:1012500000F015F9A8060AD5B00608D521686FF088
:10126000200008612046BDE8F041FFF72BBEBDE835
:10127000F081000030B585B000210091019102910C
:10128000039100682C4B2D4902242D4A98420FD11E
:10129000886940F0040088618869694600F00400AC
:1012A00004904FF47060CDE900041046039424E0EC
:1012B000244DB0F1804F24D0234B98421FD1886930
:1012C00040F004008861886900F004000490886997
:1012D00040F0080088618869694600F008000490C1
:1012E000C020CDE9000410460394FFF7CDF801209B
:1012F000CDE90004694628460394FFF7C5F805B018
:1013000030BD886940F0080088618869694600F04E
:10131000080004904FF44060CDE90004284603948F
:10132000FFF7B2F80948416821F4407141F0E061EB
:1013300041F400714160E2E7002C014000100240DE
:1013400000080140000C0140000400400000014082
:10135000704770B5044690F83C0000260D46012801
:101360000FD0012084F83C006AB1042A1DD0082A5D
:101370002FD00C2A3FD00126002084F83C003046B4
:1013800070BD022070BD206800F0B4FE2068816945
:1013900041F0080181612068816921F004018161C7
:1013A000206881692A69114311E0206800F0CAFEB3
:1013B0002068816941F4006181612068816921F4BC
:1013C00080618161206881692A6941EA0221816125
:1013D000D2E7206800F0E2FE2068C16941F0080110
:1013E000C1612068C16921F00401C1612068C1693F
:1013F0002A69114311E0206800F0FCFE2068C169F1
:1014000041F40061C1612068C16921F48061C1615A
:101410002068C1692A6941EA0221C161ACE710B5BF
:10142000040003D094F83D0010B107E0012010BD86
:10143000002084F83C00204600F01EF8022084F8CA
:101440003D00211D206800F007FE012084F84600C1
:1014500084F83E0084F83F0084F8400084F841009E
:1014600084F8420084F8430084F8440084F845007E
:1014700084F83D00002010BD7047704770477047EA
:1014800070477047F8B5016804460868CA684B6938
:1014900010F00F0F4FF0000559D003F0010602F4D1
:1014A0009077374365D0C10705D0D10503D5616C6E
:1014B00041F001016164410705D5D90703D0616C92
:1014C00041F002016164810705D5D90703D0616C41
:1014D00041F004016164010707D502F020013143A6
:1014E00003D0616C41F008016164616C00293AD05D
:1014F000800604D5900602D5204600F02EFF206815
:101500004069616CC0F38010090700D460B32046C5
:1015100000F0FCFE20684069400621D520681430A8
:1015200050E8001F21F0400140E80012002AF5D1E8
:10153000E06BA8B16D494163E06BFEF781FE0028C6
:1015400011D0E06B416B01B0BDE8F0400847830665
:101550000FD593060DD52046BDE8F84000F0FDBE3E
:101560002046FFF78EFFF8BD2046FFF78AFF65642F
:10157000F8BD266B2023012E7CD1C6067AD5D6066F
:1015800078D508684868009048694FF00206400620
:1015900040D5E16B086840680004000CE8D0A28DDB
:1015A0008242E5D9E085886920282DD020680C305A
:1015B00050E8001F21F4807140E80012002AF5D1A4
:1015C0002068143050E8001F21F0010140E80012AB
:1015D000002AF5D12068143050E8001F21F04001A6
:1015E00040E80012002AF5D184F8423025632068D3
:1015F0000C3050E8001F21F0100140E80012002AD2
:10160000F5D1E06BFEF7F9FD6663A08DE18D401A20
:1016100081B22AE0A08DE18D401A81B2E08D0028D0
:10162000A6D00029A4D022680C3252E8000F20F482
:10163000907042E80007002FF5D12068143050E880
:10164000002F22F0010240E80027002FF5D184F896
:101650004230256320680C3050E8002F22F0100241
:1016600040E80023002BF5D166632046FFF708FF12
:10167000F8BDFFE705062BD5150629D594F84100DE
:101680002128F5D1A068B0F5805F01D12069B0B103
:10169000206A411C2162216800784860E08C401E6D
:1016A0000004000CE084E3D12068C16821F08001CF
:1016B000C1602068C16841F04001C160D8E7206A7C
:1016C0000088C0F308004860206A801C2062E5E7BB
:1016D0004006CDD55006CBD5CA68204622F0400240
:1016E000CA6084F8413000F05CF9C1E7FD220008CF
:1016F00070B5040004D094F84100002510B106E054
:10170000012070BD84F84050204600F023F82420CA
:1017100084F841002068C16821F40051C16020466E
:1017200000F07CFE2068016921F49041016120688D
:10173000416921F02A0141612068C16841F40051EA
:10174000C1606564202084F8410084F8420065632C
:10175000002070BD2DE9F04F85B000250095019562
:101760000295039504465E4F03685E4802210322FA
:1017700080264FF0100B4FF0200ABB4257D18369EF
:1017800043F480438361836903F480430493836952
:1017900043F0080383618069DFF84C8100F00800A2
:1017A00004904020CDE90001039269464046FEF7CF
:1017B0006BFECDE90065B146374669464046029565
:1017C000FEF762FE4948416841F0E06141F00401E2
:1017D0004160484E4648C6E90005C6E902573561F2
:1017E000C6E9055A57463046F561FEF71FFE08B1B7
:1017F000FEF701FDE66374623E4E3D484436143800
:10180000C6E902593561C6E90557F561C6E9000B1D
:101810003046FEF70BFE08B1FEF7EDFCA663002292
:10182000114625207462FFF795F8252052E0324FCB
:10183000BB4251D1C36943F40033C361C36903F4AC
:1018400000330493836943F00403836180692B4F61
:1018500000F0040004900420CDE9000103926946E1
:101860003846FEF711FE0820CDE9000569463846E6
:101870000295FEF709FE1F4F1D4888371430C7E94F
:101880000005C7E902563D61C7E9055AD04638460A
:10189000FD61FEF7CBFD08B1FEF7ADFCE7637C62AE
:1018A000144F1348CC372830C7E902563D61C7E9C9
:1018B0000558FD61C7E9000B3846FEF7B7FD08B1D2
:1018C000FEF799FCA7630022114626207C62FFF7F1
:1018D00041F82620FFF730F805B0BDE8F08F000092
:1018E0000038014000100240000C0140000001409F
:1018F000580002405C020020004400400008014003
:1019000070472DE9F843044690F841009846164682
:101910000D46202802D00220BDE8F88385B17EB1B3
:1019200000206064212084F84100FEF7ABFEA6840D
:101930008146E684A0682027B0F5805F02D003E0EE
:101940000120E9E7206910B12E4600250EE00026AF
:101950000CE08021204600F0BDFDA8B9C6B116F804
:10196000010B21684860E08C401EE084E08C4B460F
:101970004FF00002CDF800800028EAD14FF040017E
:10198000204600F0A7FD40B184F841700320C3E772
:1019900035F8020BC0F30800E3E784F8417000203B
:1019A000BAE77047FEE70000154808B5416941F005
:1019B000010141614069002200F0010000901146E0
:1019C0000E20FEF7C7FF0E20FEF7B6FF00221146DD
:1019D0000F20FEF7BFFF0F20FEF7AEFF00221146DB
:1019E0001020FEF7B7FF1020FEF7A6FF00221146D9
:1019F0001120FEF7AFFFBDE808401120FEF79CBFA5
:101A00000010024070B586B000241C480094019478
:101A100002940394816941F010018161816901F0B0
:101A200010010491816941F020018161816901F017
:101A300020010491816941F004018161816901F013
:101A400004010491816941F00801816180690C4EB3
:101A500000F008004FF4604504900022294630460B
:101A6000FEF70AFE01200095CDE901040220039053
:101A700069463046FEF708FD06B070BD0010024012
:101A8000001001400D4810B50B4901600C49416040
:101A900000214FF480428160C0E9031241618161FD
:101AA000C1610162FEF7F4FD002803D0BDE81040DB
:101AB000FEF7A1BB10BD00000054004058000020FC
:101AC000A086010010B596B000240F9410941194D4
:101AD000129413941C2168461494FEF73EFB2021B7
:101AE00007A8FEF73AFB35483349016040F2671119
:101AF000C0E9011442F20F71C0E903148021C0E96A
:101B00000541FFF73FFA08B1FEF775FB4FF480502F
:101B10000F900FA92948FFF7A5FA08B1FEF76BFB54
:101B20002648FFF77CFC08B1FEF765FB139413A968
:101B300022481494FFF7F2F908B1FEF75CFB60202D
:101B4000CDE90004029403940494059400226946AC
:101B50001A480694FFF7FDFB08B1FEF74CFB042280
:101B600069461648FFF7F5FB08B1FEF744FB08226B
:101B700069461248FFF7EDFB08B1FEF73CFB0C226B
:101B800069460E48FFF7E5FB08B1FEF734FB079402
:101B9000089409944FF400500A94CDE90B4007A92A
:101BA00006480E94FFF78FF908B1FEF724FB0348AF
:101BB000FFF760FB16B010BD002C0140AC00002008
:101BC00010B58EB000240794089409940A940B94DD
:101BD0001C2168460C94FEF7C0FA23484FF0804160
:101BE000016040F26711C0E9011442F20F71C0E9CF
:101BF000031480218161FFF7C5F908B1FEF7FBFAF4
:101C00004FF48050079007A91748FFF72BFA08B147
:101C1000FEF7F1FA1448FFF702FC08B1FEF7EBFA01
:101C20000B940BA910480C94FFF778F908B1FEF754
:101C3000E2FA6020CDE900040294082269460A48CD
:101C40000494FFF786FB08B1FEF7D5FA0C2269462B
:101C50000548FFF77EFB08B1FEF7CDFA0248FFF713
:101C600009FB0EB010BD0000F400002010B58EB0CE
:101C700000240794089409940A940B941C21684644
:101C80000C94FEF76AFA27482549016040F2671173
:101C9000C0E9011440F2E731C0E903148461FFF7A1
:101CA00071F908B1FEF7A7FA4FF48050079007A921
:101CB0001C48FFF7D7F908B1FEF79DFA1948FFF75E
:101CC000AEFB08B1FEF797FA0B940BA915480C94DC
:101CD000FFF724F908B1FEF78EFA6020CDE9000481
:101CE0000294002269460F480494FFF732FB08B1C2
:101CF000FEF781FA042269460A48FFF72AFB08B179
:101D0000FEF779FA082269460648FFF722FB08B178
:101D1000FEF771FA0348FFF7ADFA0EB010BD0000F0
:101D2000000400403C01002010B586B00024174894
:101D3000009401940294039404941349059401605F
:101D40004721C0E9011440F2E731C0E9031484617E
:101D5000FFF718F908B1FEF74EFA4FF480500090E3
:101D600069460A48FFF77EF908B1FEF744FA049481
:101D700004A906480594FFF7D1F8002801D0FEF722
:101D80003AFA06B010BD00000008004084010020AF
:101D90000C4810B50A4901604FF4E131416000215F
:101DA00081600C22C160C0E904128161C161FFF74A
:101DB0009FFC002803D0BDE81040FEF71CBA10BD00
:101DC00000380140CC0100200C4810B50A490160E0
:101DD0004FF4E1314160002181600C22C160C0E913
:101DE00004128161C161FFF783FC002803D0BDE8C4
:101DF0001040FEF700BA10BD00440040140200205D
:101E0000FEE7FEE77047704710B5074A4FF480546D
:101E1000214602F5045000F039F82146BDE8104093
:101E2000024A034800F032B86C0300206C14002012
:101E3000882400202DE9F04115460F46041E01D0EC
:101E4000012100E000218846A1682268A0694E199E
:101E5000531E08449E4206DC2A463946FEF764F9C2
:101E6000A06828440EE0561A32463946FEF75CF95F
:101E7000AA1BB919A069FEF757F9A0682844A06009
:101E80002168401AA0604046BDE8F0810023002987
:101E900007DB32B182610160002141608160012372
:101EA000C160184670474FF0FF3140B1D0E90221C0
:101EB0008A4201DB511A02E000681044411A0846C8
:101EC000704770B5131E0E46044601DC002070BD3D
:101ED000FFF7E9FF0546984200DD1D46E0682168EE
:101EE0004219914208DDA1692A4601443046FEF7B5
:101EF0001BF9E068284412E00A1AA169014430463F
:101F0000FEF712F9E1682068401A2A1A3044A169E4
:101F1000FEF70AF9E0682844E0602168401AE060B2
:101F2000284670BD10B5FEF7AFFC00F053F8BDE8D1
:101F30001040FEF7C2BF30B58FB028216846FEF7CB
:101F40000CF914210AA8FEF708F901210804CDE9CB
:101F500000100024029402250491CDE907504FF4AB
:101F6000E01009906846FEF703FE08B172B6FEE77E
:101F70000F20CDE90A054FF48060CDE90C40022125
:101F80000AA80E94FEF718FD002801D072B6FEE7ED
:101F90000FB030BD704700000A4801214FF4FA72BB
:101FA00001704280084BC36180F820104284074AC8
:101FB000C26380F840100521A0F842100449C165B1
:101FC00070470000A4240020F5290008092A000811
:101FD000412A00082DE9F041194F1A4E002500BF93
:101FE00007EB4514E06838B1012802D12846AFF369
:101FF0000080E068401EE060207860B1E06850B981
:10200000608861683268511A884204D8207A401C7E
:102010002072306860606D1CEDB2032DE0D3306833
:102020004FF47A71B0FBF1F201FB1200002804D1E9
:102030000548016881604168C160BDE8F081000029
:10204000A424002008000020280000200148FFF7F9
:1020500078B8000084010020F0B50268194B1A4CD2
:102060001A4D4FF08047984205D0B84203D0A042A5
:1020700001D0A84203D122F070064A683243984248
:1020800005D0B84203D0A04201D0A84203D122F427
:102090004074CA6822434C6922F0800222430260E5
:1020A0008A68C2620A688262984201D10969016342
:1020B000012141610169C90703D0016921F00101D2
:1020C0000161F0BD002C0140000400400008004008
:1020D00010B5846842EA032224F47F440A43224371
:1020E000826010BD826822F070020A4342F007014C
:1020F0008160704730B5036A026A22F00102026211
:102100004268846924F073050C682C4323F00205AF
:102110008B682B430A4DA8420BD123F00805CB68EE
:1021200022F440722B434D6923F0040315438A695E
:102130002A434260846149684163036230BD000004
:10214000002C014030B5026A036A23F010030362D9
:10215000436884690D6824F4E64444EA05248D68E4
:1021600022F0200242EA05120B4DA8420ED1CD68A2
:1021700022F0800242EA05124D6923F4406343EAEB
:1021800085038D6922F0400243EA85034360846140
:1021900049688163026230BD002C014030B5036A9A
:1021A000026A22F4807202624268C46923F40073F6
:1021B00024F073050C682C438D6843EA05230C4D0D
:1021C000A8420ED1CD6823F4006343EA05234D698C
:1021D00022F4405242EA05128D6923F4806342EAF8
:1021E00005124260C4614968C163036230BD0000EA
:1021F000002C014030B5046A026A22F48052026267
:102200004268C3690D6823F4E64343EA05238D68F9
:1022100024F4005444EA0534064DA84204D14D6923
:1022200022F4804242EA85124260C3614968016437
:10223000046230BD002C014010B5036A046A24F02A
:1022400001040462846924F0F00444EA021423F0D7
:102250000A020A438461026210BD10B5036A046A6F
:1022600024F010040462846923F0A00324F4704471
:1022700044EA023243EA01118261016210BD0000AA
:1022800030B58BB02022114901A8FDF74DFF022186
:1022900001A800F0A1FA0090A0B10D4900244FF46C
:1022A000FA654162611C0BA000F05CF90098016ABC
:1022B0008847641CAC42F5DB0098C16968468847D2
:1022C0000BB030BD06A000F04DF9F9E7542A000824
:1022D000812700084379636C652025643A0A000071
:1022E0005363686564756C657220637265617469B7
:1022F0006F6E206661696C65640A000010B5406A03
:102300000021C185C184FFF7BCF810BD01680C3104
:1023100051E8002F22F4907241E80023002BF5D100
:102320000168143151E8002F22F0010241E8002336
:10233000002BF5D1016B012909D101680C3151E85D
:10234000002F22F0100241E80023002BF5D12021BC
:1023500080F8421000210163704708B590F84210E0
:10236000222901D0022008BD82684FF480539A428E
:1023700001D1016921B1816A9A421BD04AB10AE0B8
:102380000268816A5268C2F308020A80816A891C65
:1023900008E0026972B10268526802F07F020A70B6
:1023A000816A491C8162C18D491E0904090CC185DD
:1023B00003D01BE002685268F1E70168CA6822F0A6
:1023C0002002CA600168CA6822F48072CA6001688B
:1023D0004A6922F001024A61202180F8421000215E
:1023E0004163026B012A03D0FFF78AFA002008BD7F
:1023F000016301680C3151E8002F22F0100241E81E
:102400000023002BF5D101680A68D20602D50A68BC
:1024100049680091818DFFF733F8E7E770B504460E
:1024200000680169E26821F44051114301612169AA
:10243000A0680843616908432168CA6841F20C63D7
:102440009A430243CA6020684169A26921F440713D
:10245000114341611E492068884202D1FEF752FBB8
:1024600001E0FEF73FFB00EBC00101EB00126068EA
:1024700064218000B2FBF0F3B3FBF1F36FF01806B8
:102480007343B2FBF0F5B2FBF0F605EB83053223A4
:1024900003EB0515B5FBF1F5B6FBF1F605F0F0051C
:1024A00005EB0615B2FBF0F6B2FBF0F0B0FBF1F075
:1024B0006FF01802504306EB800003EB0010B0FBF6
:1024C000F1F0216800F00F002844886070BD000022
:1024D000003801402DE9F843984617460D4604465A
:1024E000089E24E0701C22D0FEF7CCF8A0EB080078
:1024F000B0421AD8CEB12068C168490717D5802DDF
:1025000015D0402D13D00168C94309070FD40168C5
:102510000025406800902046FFF7F8FE0820606420
:1025200084F840500120BDE8F8830320FBE72068D1
:10253000006835EA000004D00020B842D2D0002064
:10254000F1E70120F9E700000148FEF79BBF00001A
:10255000CC0100200148FEF795BF000014020020C6
:10256000FEE700000FB4054B10B503A9044A02981A
:1025700000F028F810BC5DF814FB000019270008D3
:102580004C0000200907090E002804DB00F1E020C0
:1025900080F80014704700F00F0000F1E02080F890
:1025A000141D704702E008C8121F08C1002AFAD1A2
:1025B00070477047002001E001C1121F002AFBD1C3
:1025C000704700002DE9FF4F89B09B460446002567
:1025D00006E025280BD05A460B999047641C6D1CC9
:1025E00020780028F5D10DB02846BDE8F08F0027EF
:1025F000B8460122474900E0074314F8013F203B59
:1026000002FA03F00842F7D120782E2819D114F8E5
:10261000010F47F004072A280ED06FF02F02207810
:10262000A0F1300109290CD808EB880102EB410127
:1026300000EB0108641CF2E70A98641C50F8048B54
:102640000A9020780028CED0642808D0692806D0C7
:1026500075281ED05A460B9990476D1C58E00A9970
:102660004FF00A0901C90A91002802DA40422D21DF
:1026700002E0390504D52B218DF82010012103E05B
:10268000F90704D02021F7E78A4608AE0DE00021C3
:10269000FAE70A994FF00A0901C90A91F7E7494692
:1026A000FDF766FD303106F8011D0028F7D1ADEBCE
:1026B000060000F12009780701D44FF00108C84551
:1026C00002DDA8EB090000E000208046002706E0BC
:1026D00008A85A46C05D0B9990476D1C7F1C574552
:1026E000F6DB04E030205A460B9990476D1CB8F198
:1026F0000001A8F10108F5DC05E016F8010B5A46C7
:102700000B9990476D1CB9F10001A9F10109F4DCA6
:10271000641C65E70928010013B54FF0FF3301225F
:1027200069460248FFF7EDF800981CBDCC01002077
:1027300010B5002821D0114B0022001F196803E0BA
:10274000814203D80A4649680029F9D152B1136879
:10275000841A9C4204D1006818441060104602E0BC
:10276000506000E0186039B102680B1A934203D13F
:102770000B681A4402604968416010BD5000002097
:1027800002490868401C08607047000020000020D3
:1027900010B5040006D02068002803D0FFF7C8FF5A
:1027A0000020206010BD70B50446406A8047064690
:1027B00084B1656908E0A068B04204D8E068804749
:1027C00060683044A0606D6825B12C6820780028CE
:1027D000F9D0F0E7012070BD2DE9F04104460F4625
:1027E000282000F0B3F805001BD00022102100F0D3
:1027F000E3F8002609E08CB1E06878B12146103496
:10280000284600F039F848B1761CBE42F3D306489A
:10281000E861064828622846BDE8F0812846FFF7AF
:1028200087FF0020F8E7000091270008A72700088D
:1028300070B505001ED0E9B10E46082000F086F8FC
:1028400004004FF0000015D06060287B48B1A868F4
:1028500000F07CF8206068B13146AA68FDF764FC9E
:1028600000E02660A8694460AC616868401C68604C
:10287000012070BD002070BD02685268104770B51D
:1028800016460D46446906E031462068A84708B15F
:10289000206870BD6468002CF6D1002070BD4069CE
:1028A000002800D000687047002070472DE9F041F3
:1028B00090460F4605460026446926E041462068BA
:1028C000B84700B360682EB17060A869A04206D115
:1028D00026B901E06861F8E705F11006AE616868A5
:1028E0002146401E686000206060287B40B10800DF
:1028F0000DD00868FFF71CFF2046FFF719FF06E020
:102900000868BDE8F08126466468002CD6D1002016
:10291000F7E7FDF7C1FFFFF70EFBFFF773F8FFF7CF
:1029200043F8FFF74DF9FFF7A1F9FFF731FAFFF789
:102930004BFAFFF7A7F8FFF7C5F8FFF7F5F9FFF730
:1029400063FAFFF729FBFFF79BFCFCE7F0B50B30C0
:10295000154D20F007010024144A0FE003688B4254
:102960000BD38B4205D95E1A43184768C3E9006749
:1029700000E04368136002C004E0021D10680028F4
:10298000ECD12046002802D1286808B10020F0BD13
:10299000064A07481060074A121A22F00702C0E9E7
:1029A000002401202860D7E75400002050000020B8
:1029B0001C250020182700200023C0E9013100F168
:1029C0001001816102730149016070470C00002011
:1029D00010B54FF400510448FDF746FEBDE8104025
:1029E00002A0FFF7BFBD0000001001407461736BCF
:1029F000310A00004FF400510148FDF735BE0000D8
:102A0000001001407047000010B514220849094821
:102A1000FFF710FA142208490648FFF752FA642318
:102A2000BDE810401E2202490448FEF76ABF0000BC
:102A3000380000206C24002004250020CC01002058
:102A40007047010202030405060708090A0B0C0D72
:102A50000E0F101001000000B80B00000000000075
:102A6000D1290008010000002C0100000000000036
:102A7000052A000800000000000000000102030415
:102A8000060708090000000001020304AC2A000840
:102A90000000002058000000A4250008042B0008B6
:102AA00058000020C02A0000B425000801000000E2
:102AB00010000000000000007F28000831280008F6
:102AC000AD2800089F280008A92800080000000081
:102AD00000127A000000000000000000000000006A
:102AE0000000000068656C6C6F20776F726C64008A
:102AF00000000000000000000000000000000000D6
:042B000000000000D1
:04000005080000ED02
:00000001FF
